:060000000A128A1110280B
:10000800FE00030E83160313AD000A08AE007F0836
:10001800AF000A128A15DC2C0A128A1113288316DB
:1000280003130A128A11F6270A128A11B600B101BF
:10003800B201B301B401B50183120313EF018301C7
:100048000A128A11ED2F831203133D088039C2006A
:100058004208C7003D08C2004207C3004308CD005C
:10006800BC1F3728382839284D144D0803193D2856
:100078003E284D284D0A031D422843284B280030AE
:10008800BD000030BC000030BB000030BA00BC1717
:1000980055280030BD000030BC000030BB000030E7
:1000A800BA0041088039C2004208C7064108C200A8
:1000B8004207C3004308CC00C01F63286428652892
:1000C8004C144C08031969286A2879284C0A031D1E
:1000D8006E286F2877280030C1000030C00000303B
:1000E800BF000030BE00C01781280030C1000030BA
:1000F800C0000030BF000030BE004C08031985283E
:1001080086288B284D08031D8A288B2894280030C0
:10011800BD000030BC000030BB000030BA00872BA7
:100128003A08C2004208F00040080A128A15B524AD
:100138000A128A11710883120313D3007008D200BF
:100148005208C200C301C401C5014508CB004408D8
:10015800CA004308C9004208C8005308C200C301C6
:10016800C401C5014508D1004408D0004308CF00A8
:100178004208CE003B08C2004208F0003F080A12BD
:100188008A15B5240A128A11710883120313D30041
:100198007008D2005208C200C301C401C501420858
:1001A800C807430803110318013E0319DC28C907CF
:1001B800440803110318013E0319E328CA07450838
:1001C80003110318013E0319EA28CB075308C2009C
:1001D800C301C401C5014208CE074308031103182F
:1001E800013E0319F828CF07440803110318013EFC
:1001F8000319FF28D007450803110318013E031906
:100208000629D1073C08C2004208F0003E080A123D
:100218008A15B5240A128A11710883120313D300B0
:100228007008D2005208C200C301C401C5014208C7
:10023800C807430803110318013E03192429C907F5
:10024800440803110318013E03192B29CA0745085E
:1002580003110318013E03193229CB075308C200C2
:10026800C301C401C5014208CE074308031103189E
:10027800013E03194029CF07440803110318013E22
:1002880003194729D007450803110318013E03192C
:100298004E29D1070830C2000310C80DC90DCA0D78
:1002A800CB0DC20B50293B08C2004208F0003E08A3
:1002B8000A128A15B5240A128A11710883120313C7
:1002C800D3007008D2005208C2005308C300C4010A
:1002D800C5014208C807430803110318013E031962
:1002E8007629C907440803110318013E03197D291B
:1002F800CA07450803110318013E03198429CB07CF
:100308003A08C2004208F0003F080A128A15B524CC
:100318000A128A11710883120313D3007008D200DD
:100328005208C2005308C300C401C5014208C807E7
:10033800430803110318013E0319A329C9074408F8
:1003480003110318013E0319AA29CA074508031116
:100358000318013E0319B129CB070830C200031066
:10036800C80DC90DCA0DCB0DC20BB3293A08C2007E
:100378004208F0003E080A128A15B5240A128A11AA
:10038800710883120313D3007008D2005208C20008
:100398005308C300C401C5014208C8074308031134
:1003A8000318013E0319D929C90744080311031882
:1003B800013E0319E029CA07450803110318013E45
:1003C8000319E729CB073B08C2004208F0004008A0
:1003D8000A128A15B5240A128A11710883120313A6
:1003E800D3007008D2005208C2005308C300C401E9
:1003F800C5014208CE07430803110318013E03193B
:10040800062ACF07440803110318013E03190D2AD1
:10041800D007450803110318013E0319142AD10710
:100428003C08C2004208F0003F080A128A15B524A9
:100438000A128A11710883120313D3007008D200BC
:100448005208C2005308C300C401C5014208CE07C0
:10045800430803110318013E0319332ACF07440840
:1004680003110318013E03193A2AD007450803115E
:100478000318013E0319412AD1073C08C20042086B
:10048800F00040080A128A15B5240A128A11710868
:1004980083120313D3007008D2005208C200530815
:1004A800C300C401C50108300310C20DC30DC40D3B
:1004B800C50DFF3E031D582A4208CE074308031105
:1004C8000318013E0319692ACF07440803110318CA
:1004D800013E0319702AD007450803110318013E8D
:1004E8000319772AD1074808C2004908C3004A08F7
:1004F800C4004B08C50018300310C50CC40CC30C4D
:10050800C20CFF3E031D802A4208CE074308031190
:100518000318013E0319912ACF0744080311031851
:10052800013E0319982AD007450803110318013E14
:1005380003199F2AD1070830C2000310C80DC90D3E
:10054800CA0DCB0DC20BA12A4D084C07C200C3012E
:10055800C30D4208823ED20043080318013EFF3E05
:10056800D300D32A0130C2000310CE0DCF0DD00D19
:10057800D10DC20BB82ACB1FC22AC32AC42A4E14D3
:100588000130C2000310C80DC90DCA0DCB0DC20B36
:10059800C62AFF30D2070318D30AFF30D307D01F6B
:1005A800D62AD72AB62ACC01CB1FDB2ADC2AF82A7E
:1005B800FF304805C200FF304905C300FF304A0537
:1005C800C4007F304B05C500450844044304420479
:1005D8000319EF2AF02AF32ACC01CC0AF82A4E1C78
:1005E800F62AF72AF82AF02A4C080319FC2AFD2AC9
:1005F8002E2B0130CE07003003180130CF07003012
:1006080003180130D007003003180130D107511CFE
:100618000E2B0F2B2E2B4E08C2004F08C30050087C
:10062800C4005108C5000130C600450DC50CC40CF6
:10063800C30CC20CC60B192B4508D1004408D000C6
:100648004308CF004208CE000130D2070318D30A6E
:100658000030D3075308803AFF0080307F02031D23
:10066800372BFF305202031C3A2B3B2B462B7F3093
:1006780083120313D1008030D0000030CF00003047
:10068800CE007B2B831203135308803AFF0080307F
:100698007F02031D512B013052020318542B552B96
:1006A800612B003083120313D1000030D0000030DA
:1006B800CF000030CE00C7017B2B831203135208F2
:1006C800C2004208CD00FF30CE05FF30CF057F3095
:1006D800D0050030D1054D1C722B732B742BD0170D
:1006E8004D08C2000310420CC3004308D10047085C
:1006F800C2004208D1045108BD005008BC004F0890
:10070800BB004E08BA00080083120313570880394B
:10071800DC005C08E4005708DC005C07DD005D08CD
:10072800E600D61F982B992B9A2B66146608031996
:100738009E2B9F2BAF2B660A031DA32BA42BAC2B40
:100748000030D7000030D6000030D5000030D4008B
:10075800D617D701B72B0030D7000030D6000030AD
:10076800D5000030D4005B088039DC005C08E50067
:10077800650864060319C12BC22BC32B64175B08D9
:10078800DC005C07DD005D08E500DA1FCC2BCD2B13
:10079800CE2B651465080319D22BD32BE32B650ADE
:1007A800031DD72BD82BE02B0030DB000030DA00FC
:1007B8000030D9000030D800DA17DB01EB2B00300D
:1007C800DB000030DA000030D9000030D8006608BD
:1007D80065020318F02BF12B352C641FF42BF52B35
:1007E800F92B8030DC005C08E4066608DC005C0855
:1007F800E7006508DC005C08E6006708DC005C08C8
:10080800E5005408DC005C08E7005808DC005C08D8
:10081800D4006708DC005C08D8005508DC005C08D8
:10082800E7005908DC005C08D5006708DC005C08B4
:10083800D9005608DC005C08E7005A08DC005C08B0
:10084800D6006708DC005C08DA005708DC005C08A2
:10085800E7005B08DC005C08D7006708DC005C0880
:10086800DB00E7016508DC00DD015D08DF006608E4
:100878005C02DE00031CDF035F08803AFF00803063
:100888007F02031D492C1A305E02031C4C2C4D2C90
:100898008A2C831203135708560455045404031D65
:1008A800562C582C0130592C0030DC005C08E7002D
:1008B8000030D7000030D6000030D5000030D4001A
:1008C8006508DC005C08E600922C671C6C2C6D2C1B
:1008D800762C6708DC0003105C0C0138DD005D082D
:1008E800E700782C0310E70C541C7B2C7C2C7D2C07
:1008F800E7170130DC00570DD70CD60CD50CD40CFB
:10090800DC0B7F2C0130DC005C08E6078312031344
:1009180065086602031C912C922C692C641B952C8B
:10092800962CE12C6608031D9A2C9B2CA42C0030D5
:10093800D7000030D6000030D5000030D4000F2E8C
:100948005808D407590803110318013E0319AD2CA0
:10095800D5075A0803110318013E0319B42CD6070A
:100968005B0803110318013E0319BB2CD707571C5A
:10097800BE2CBF2C952D671CC22CC32CCC2C670811
:10098800DC0003105C0C0138DD005D08E700CE2CAC
:100998000310E70C541CD12CD22CD32CE7170130B0
:1009A800DC00570DD70CD60CD50CD40CDC0BD52C91
:1009B8000130DC005C08E607952D5708803AFF00F7
:1009C8005B08803A7F02031DF32C5A085602031D68
:1009D800F32C59085502031DF32C58085402031828
:1009E800F62CF72C4F2DFF30DC00FF30DD00FF30F8
:1009F800DE00FF30DF005808E0005908E1005A081F
:100A0800E2005B08E3005408E0025508031C550F98
:100A18000E2D0F2DE1025608031C560F142D152D0F
:100A2800E2025708031C570F1A2D1B2DE30260081A
:100A3800DC0761080318610F222D232DDD076208EA
:100A48000318620F282D292DDE0763080318630A8F
:100A5800DF075F08D7005E08D6005D08D5005C0890
:100A6800D4008030DC005C08E406E709E70A670880
:100A7800031D3F2D402D5D2D0130D4070030031894
:100A88000130D507003003180130D60700300318AD
:100A98000130D7075D2D5808D4025908031C590F97
:100AA800D5025A08031C5A0FD6025B08031C5B0FB9
:100AB800D7025708560455045404031D642D652DA8
:100AC800912D6708031D692D6A2D912D0030D700DF
:100AD8000030D6000030D5000030D4000F2E013091
:100AE800DC000310D40DD50DD60DD70DDC0B752DFC
:100AF800E71F7F2D802D812D5414671C842D852D93
:100B0800882D0314E70D8A2D0310E70D66080319D5
:100B18008E2D8F2D912D0130E602D61F942D952D07
:100B2800732DE501E71F992D9A2DA82D67087F39A8
:100B380003199F2DA02DA32DE501E50AA82D541C0E
:100B4800A62DA72DA82DA02D65080319AC2DAD2D18
:100B5800E12D0130D407003003180130D5070030EB
:100B680003180130D607003003180130D707571C87
:100B7800BE2DBF2DE12D5408DC005508DD005608B8
:100B8800DE005708DF000130E0005F0DDF0CDE0CEF
:100B9800DD0CDC0CE00BC92D5F08D7005E08D60021
:100BA8005D08D5005C08D400660A0319DC2DDD2D2C
:100BB800E12D0130DC005C08E607660A0319E52D23
:100BC800E62DEB2D6608031DEA2DEB2DF92D0030DF
:100BD800D7000030D6000030D5000030D4006608B9
:100BE800031DF72DF82DF92DE401661CFC2DFD2DB4
:100BF800FF2DD617032E7F30DC005C08D60566086B
:100C0800DC0003105C0CDD005D08D700E41F0D2E2E
:100C18000E2E0F2ED71708008312031327088039CA
:100C2800A8002808B1002708A8002807A900290853
:100C3800B800A61F202E212E222E3814380803199A
:100C4800262E272E372E380A031D2B2E2C2E342E17
:100C58000030A7000030A6000030A5000030A40036
:100C6800A617A7013F2E0030A7000030A6000030CD
:100C7800A5000030A40023088039A8002808B10680
:100C88002308A8002807A9002908B900A21F4D2E8B
:100C98004E2E4F2E391439080319532E542E642E14
:100CA800390A031D582E592E612E0030A30000303A
:100CB800A2000030A1000030A000A217A3016C2EF2
:100CC8000030A3000030A2000030A1000030A000D6
:100CD8002308220421042004031D732E742E8D2E54
:100CE8000030A7000030A6000030A5000030A400A6
:100CF8008030A6047F30A7043108A8002808A7047C
:100D08002708A3002608A2002508A1002408A0009F
:100D1800EC2F3808031D912E922E9B2E0030A30035
:100D28000030A2000030A1000030A000EC2F3808ED
:100D3800A800A9012908AB0039082802AA00031C49
:100D4800AB032A087F3EB2002B080318013E003E81
:100D5800B3002708B0002608AF002508AE00240815
:100D6800AD000030A7000030A6000030A50000301C
:100D7800A4000030B7000030B6000030B5000030E5
:100D8800B400B901112F39080319CB2ECC2EEC2E43
:100D98000130A8000310AD0DAE0DAF0DB00DA80BBE
:100DA800CE2E0130A8000310A40DA50DA60DA70D89
:100DB800A80BD72EB71FE12EE22EE32E2414013004
:100DC800A8000310B40DB50DB60DB70DA80BE52E90
:100DD80023083002031DFA2E22082F02031DFA2EC3
:100DE80021082E02031DFA2E20082D02031CFD2EB9
:100DF800FE2E0D2F37172008AD022108031C210FE6
:100E0800AE022208031C220FAF022308031C230F83
:100E1800B0020130A8002808B9071A303902031CAB
:100E2800162F172FC72E30082F042E042D04031950
:100E38001E2F1F2F3E2F34143E2F0130A800031001
:100E4800A40DA50DA60DA70DA80B232FB71F2D2F99
:100E58002E2F2F2F24140130A8000310B40DB50D28
:100E6800B60DB70DA80B312FFF30B2070318B30A20
:100E7800FF30B307A61F412F422F212FB901B71FFB
:100E8800462F472F632FFF303405A800FF30350564
:100E9800A900FF303605AA007F303705AB002B08C4
:100EA8002A042904280403195A2F5B2F5E2FB9013D
:100EB800B90A632F241C612F622F632F5B2F390817
:100EC8000319672F682F992F0130A40700300318E2
:100ED8000130A507003003180130A60700300318B9
:100EE8000130A707271C792F7A2F992F2408A800EB
:100EF8002508A9002608AA002708AB000130AC0085
:100F08002B0DAB0CAA0CA90CA80CAC0B842F2B082E
:100F1800A7002A08A6002908A5002808A40001306F
:100F2800B2070318B30A0030B3073308803AFF004A
:100F380080307F02031DA22FFF303202031CA52F31
:100F4800A62FB42FFF3083120313B2000030B30072
:100F58000030A7000030A6000030A5000030A40033
:100F6800831203133308803AFF0080307F02031D89
:100F7800BF2F013032020318C22FC32FD02F831284
:100F88000313B201B3010030A7000030A6000030FF
:100F9800A5000030A400B101831203133208A80091
:100FA8002808B800381CD92FDA2FDC2FA617E02F15
:100FB8007F30A8002808A6053808A8000310280CC8
:100FC800A9002908A7003108A8002808A704842E2A
:100FD80008000A128A1569250A128A11F22F0A12C4
:060FE8008A111028FF34FD
:10196A00F800F401F5017008F200F3017208F600BC
:10197A007308F700781CC22CC32CC92C7608F4070C
:10198A000318F50A7708F50701300310F60DF70D6D
:10199A00FF3E031DCA2C0310F80C7808031DD62C31
:1019AA00D72CBF2C7508F1007408F00008008312C8
:1019BA000313051CE12CE22C192D8C1DE52CE62CB9
:1019CA00FF2C83160313350883120313930083161F
:1019DA000313330A0319F22CF32CFD2C3508831256
:1019EA000313880083160313350883120313930025
:1019FA0083128C110B1C022D032D5E2D0618062D49
:101A0A00072D0E2D013083160313AB002B08B507E3
:101A1A000B1083128618122D132D5E2D013083169A
:101A2A000313B5020B105E2D1F0C83160313AB00B4
:101A3A002B0C0F39003A031D232D242D5E2DA501F1
:101A4A00FF30AB002B08A6000030A700A800F73033
:101A5A00A9000130AA008312031313080A128A1577
:101A6A0094260A128A15831603132608B20025083B
:101A7A00B1003208AC003108AB000310AC0CAB0C5F
:101A8A000310AC0CAB0C2B088312031395008316BE
:101A9A00031331080339AB00AB0E83120313170883
:101AAA00831603132B06CF392B06831203139700D1
:101ABA005E2D831603132F08FF002E088A002D0EB1
:101ACA008300FE0E7E0E090002308316031788007B
:101ADA008901831603130F088F3940388F000F14BA
:101AEA0023308500831203138501831603138801AB
:101AFA0083120313880183160313860183120313C7
:101B0A00860183160313B50183120313051C8E2D58
:101B1A008F2DB82D183083160313870083120313F1
:101B2A008701831603138901831203138901140899
:101B3A00F0390438940014129416831603131417F8
:101B4A009413061486148113151495148B15161400
:101B5A0096140B10831203138C11831603138C151E
:101B6A000B178B17F72D1830831603138700831270
:101B7A00031387011408F0390438940014129416D8
:101B8A008316031314179413073083160313B00034
:101B9A00B00BCD2D00008316031307157C3092007D
:101BAA008312031397013F3097051708F0390C3851
:101BBA0097001F3095001708CF39103897008C10FE
:101BCA00053092008C1CEA2DEB2DE72D8C10831624
:101BDA0003130711831203138C11831603138C1535
:101BEA000B178B1708000310831203136A0D6B0D72
:101BFA0083160313A000200883120313ED006D0857
:101C0A00031D082E092E122E0030EB000030EA00C8
:101C1A000030E9000030E800932E680883160313A9
:101C2A00A00083120313690883160313A100831209
:101C3A0003136A0883160313A200831203136B08A3
:101C4A0083160313A3001F300310A30CA20CA10CCC
:101C5A00A00CFF3E031D292E2008A400240883128D
:101C6A000313EC00EA17FF30E805FF30E905FF30FF
:101C7A00EA050030EB059630ED02ED1F452E462EA3
:101C8A00642E6D08803A973E03184C2E4D2E4E2E28
:101C9A00092E01300310EB0CEA0CE90CE80CFF3EAC
:101CAA00031D4F2E013083160313A0002008831250
:101CBA000313ED07031D622E632E4E2E832E203052
:101CCA006D02031C692E6A2E7E2E092E01308316A0
:101CDA000313A000031083120313E80DE90DEA0DA4
:101CEA00EB0D83160313A00B6F2E0130831203131F
:101CFA00ED026D08031D822E832E6B2E6C080319CC
:101D0A00872E882E932EE809E909EA09EB09E80AE1
:101D1A000319E90A0319EA0A0319EB0A08008312EC
:101D2A000313EE00831603132708F0002808F100B6
:101D3A00F201F30100300A128A1546270A128A159F
:101D4A00730883120313DB007208DA007108D900E2
:101D5A007008D8008316031327082902F000280800
:101D6A00031C280A2A02F100F201F30100300A12C8
:101D7A008A1546270A128A15730883120313A700C5
:101D8A007208A6007108A5007008A4008316031340
:101D9A0025082602F000F101031CF103F201F11BF0
:101DAA00F2037208F30001300A128A1546270A1252
:101DBA008A15730883120313A3007208A20071081C
:101DCA00A1007008A0000A128A1110260A128A15A8
:101DDA00831203132308C1002208C0002108BF0090
:101DEA002008BE00831603132508831203136E020C
:101DFA00F000F101031CF103F201F11BF203720876
:101E0A00F30001300A128A1546270A128A15730846
:101E1A0083120313BD007208BC007108BB0070086E
:101E2A00BA000A128A1127200A128A15831203138A
:101E3A003D08D7003C08D6003B08D5003A08D40034
:101E4A000A128A1188230A128A1583120313570861
:101E5A00EB005608EA005508E9005408E8000A129F
:101E6A008A15F8250A128A1583120313690883163C
:101E7A000313A60083120313680883160313A5002D
:101E8A000800F800780803194B2F4C2F602FF31F16
:101E9A004F2F502F602F7009FA007109FB00720949
:101EAA00FC007309FD00FA0A0319FB0A0319FC0A6C
:101EBA000319FD0A682F7308FD007208FC007108F7
:101ECA00FB007008FA007308720471047004031DA1
:101EDA006F2F702F792F0030F3000030F20000309E
:101EEA00F1000030F000FF2F9630F4007408F9007A
:101EFA008B2F0130F4007408F90701300310FD0C30
:101F0A00FC0CFB0CFA0CFF3E031D832FFE307D05F3
:101F1A00031D902F912F7E2FAD2F0130F4007408EE
:101F2A00F9070130FA07003003180130FB070030C7
:101F3A0003180130FC07003003180130FD07013097
:101F4A000310FD0CFC0CFB0CFA0CFF3E031DA52F25
:101F5A00FF307D05031DB22FB32F922FBF2F013003
:101F6A00F9020130F4000310FA0DFB0DFC0DFD0D12
:101F7A00F40BB82FFC1BC22FC32FC92F02307902D2
:101F8A000318C82FC92FB42F7918CC2FCD2FD52FCE
:101F9A00FF30FA05FF30FB057F30FC05FF30FD05F9
:101FAA000310F90C7908F400F501F601F70118306D
:101FBA000310F40DF50DF60DF70DFF3E031DDD2F91
:101FCA007408FA047508FB047608FC047708FD0413
:101FDA0078080319F12FF22FF72FF31FF52FF62F99
:101FEA00F72FFD177D08F3007C08F2007B08F1004B
:061FFA007A08F000080067
:08400000FF3FFF3FFF3FFF3FC0
:04400E00D420FF3F7C
:00000001FF
